:020000040800F2
:1000000020070020B50100081D1E0008351C00084F
:10001000191E0008BD020008792200080000000037
:10002000000000000000000000000000F5200008B3
:10003000DD020008000000008D1E00084D210008B0
:10004000CF010008CF010008CF010008CF01000850
:10005000CF010008CF010008CF010008CF01000840
:10006000CF010008CF010008CF010008CF01000830
:10007000CF010008CF010008CF010008CF01000820
:10008000CF010008CF010008CF010008CF01000810
:10009000CF010008CF010008CF010008CF01000800
:1000A000CF010008CF010008CF010008CF010008F0
:1000B000CF010008CF010008CF010008CF010008E0
:1000C000CF010008CF010008CF010008CF010008D0
:1000D000CF010008CF010008CF010008CF010008C0
:1000E000CF010008CF010008CF01000800F002F89E
:1000F00000F050F814A696E8000CB244B344DA4578
:1001000001D100F047F8BAE80F000FA696E83000DA
:10011000A5EB040504EB0607AAEB0704A7F101070A
:100120004FEA15154FEA3414A4F10104AC4201D38F
:1001300000F030F813F0010F18BFFB1A43F0010371
:1001400000F001F8DBE718477C2600009C26000041
:10015000103A24BF78C878C1FAD8520724BF30C8F3
:1001600030C144BF04680C60704700007047000055
:100170000023002400250026103A28BF78C1FBD8B0
:10018000520728BF30C148BF0B6070471FB51FBD65
:1001900010B510BD00F05DF81146FFF7F7FF02F053
:1001A00089F900F07BF803B4FFF7F2FF03BC00F01D
:1001B0007FF800000948804709480047FEE7FEE74E
:1001C000FEE7FEE7FEE7FEE7FEE7FEE7FEE7FEE707
:1001D00004480549054A064B70470000B92100084C
:1001E000ED0000082001002020070020200300204F
:1001F000200300204FF0000200B5134694469646B7
:10020000203922BFA0E80C50A0E80C50B1F1200129
:10021000BFF4F7AF090728BFA0E80C5048BF0CC0D7
:100220005DF804EB890028BF40F8042B08BF704735
:1002300048BF20F8022B11F0804F18BF00F8012BA7
:1002400070477047704770470048704710000020A3
:1002500070477546FFF7F8FFAE46050069465346FE
:1002600020F00700854618B020B5FFF7B1FFBDE8C4
:1002700020404FF000064FF000074FF000084FF00D
:10028000000BAC46ACE8C009ACE8C009ACE8C0095A
:10029000ACE8C00921F007018D46704710B504464F
:1002A000AFF300802046BDE81040FFF77CBF0000A0
:1002B00001491820ABBEFEE726000200FFE7FEE77B
:1002C00080B584B000F09CFB039000F09FFB02908F
:1002D00000F0AEFB019004B080BD0000704700004C
:1002E00081B0EFF3108072B60090FFE7FEE70000E8
:1002F00090B00F900E9100200D900990FFE70E989E
:1003000000680D99C840002800F07F81FFE70D9933
:10031000012088400C900E9800680C9908400B90C2
:100320000B980C99884240F06C81FFE70E9840686A
:100330000590002851D0FFE7059801283AD0FFE743
:10034000059802283FD0FFE7059803285FD0FFE714
:100350000598112832D0FFE70598122838D0FFE71A
:1003600005980021C1F21101884236D0FFE70598B7
:100370000021C1F2120188422FD0FFE70598002129
:10038000C1F22101884228D0FFE705980021C1F27F
:100390002201884221D0FFE705980021C1F23101F6
:1003A00088421AD0FFE705980021C1F23201884245
:1003B00013D02FE00E98C06809902CE00E98C0680A
:1003C0000430099027E00E98C0680830099022E0B8
:1003D0000E98C0680C3009901DE00E98806818B91E
:1003E000FFE70420099011E00E988068012806D1EB
:1003F000FFE7082009900C980F99086105E0082094
:1004000009900C980F994861FFE7FFE703E000208F
:10041000099000E0FFE70B98FF2803D8FFE70F984B
:10042000049003E00F9804300490FFE704980890CC
:100430000B98FF2804D8FFE70D988000039006E092
:100440000D996FF01F0000EB81000390FFE7039808
:10045000079008980068079A0F21914088430999EE
:1004600091400843089908600E98C079C00600289A
:1004700040F1C680FFE7FFE741F21800C4F2020036
:10048000016841F001010160006800F00100069080
:100490000698FFE70D9820F003000821C4F201013F
:1004A00040580A900D9800F0030081000F2000FAD8
:1004B00001F10A9888430A900F9840F60001C4F2AF
:1004C0000101884203D1FFE70020029026E00F9847
:1004D00040F60041C4F20101884203D1FFE7012048
:1004E000019018E00F9841F20001C4F20101884226
:1004F00003D1FFE7022000900AE00F9941F2004289
:10050000C4F201020420914208BF03200090FFE7DB
:1005100000980190FFE701980290FFE702980D997B
:1005200001F00301890000FA01F10A9808430A90DA
:100530000A980D9921F003010822C4F201028850A3
:100540000E988079C006002809D5FFE70B9A40F283
:100550000841C4F2010108681043086008E00B9AE2
:1005600040F20841C4F20101086890430860FFE7C7
:100570000E9880798006002809D5FFE70B9A40F293
:100580000C41C4F2010108681043086008E00B9AAE
:1005900040F20C41C4F20101086890430860FFE793
:1005A0000E9880798007002809D5FFE70B9A40F262
:1005B0000441C4F2010108681043086008E00B9A86
:1005C00040F20441C4F20101086890430860FFE76B
:1005D0000E988079C00748B1FFE70B9A40F20041BE
:1005E000C4F2010108681043086008E00B9A40F269
:1005F0000041C4F20101086890430860FFE7FFE78B
:10060000FFE70D9801300D9079E610B070470000BB
:1006100082B00190ADF802108DF801209DF8010024
:1006200028B1FFE7BDF802000199086105E0BDF8B7
:100630000200000401990861FFE702B07047000062
:1006400040F21C10C2F200000068704740F2040043
:10065000C2F20000027840F21C11C2F200010868E8
:10066000104408607047000080B542F20001C4F2F7
:100670000201086840F010000860032000F08CF8C8
:100680000F2000F005F800F03BF8002080BD0000CE
:1006900080B582B0009040F20000C2F20000006815
:1006A00040F20401C2F200010A784FF47A71B1FB02
:1006B000F2F1B0FBF1F001F061FA20B1FFE70120A7
:1006C0008DF8070018E000980F280DD8FFE7009973
:1006D0004FF0FF30002200F045F8009840F208018A
:1006E000C2F20001086003E001208DF8070003E07A
:1006F00000208DF80700FFE79DF8070002B080BDDD
:1007000083B0FFE741F21800C4F20200016841F033
:1007100001010160006800F0010002900298FFE70B
:10072000FFE741F21C00C4F20200016841F0805171
:100730000160006800F0805001900198FFE7FFE73A
:100740000421C4F2010108680090009820F0E060E4
:100750000090009840F00070009000980860FFE75B
:1007600003B0704780B586B08DF8170004910392EE
:100770000020029001F082FD02909DF91700019087
:1007800002980499039A01F04BFB0146019801F08D
:100790007DFD06B080BD000080B582B0019001985B
:1007A00001F096FD02B080BD80B584B00290019149
:1007B000029820B9FFE701208DF80F001BE1019896
:1007C00042F20001C4F20201096801F00701884207
:1007D00016D9FFE742F20000C4F20200016821F0DE
:1007E0000701019A11430160006800F007000199B8
:1007F000884204D0FFE701208DF80F00FBE0FFE7FF
:1008000002980078800700282AD5FFE70298007830
:100810004007002809D5FFE741F20401C4F20201B4
:10082000086840F4E0600860FFE70298007800077D
:10083000002809D5FFE741F20401C4F2020108686B
:1008400040F460500860FFE741F20401C4F2020185
:10085000086820F0F000029A926810430860FFE7F1
:1008600002980078C007002860D0FFE7029840682F
:1008700001280ED1FFE741F20000C4F20200006837
:100880008003002804D4FFE701208DF80F00B2E0B8
:1008900021E00298406802280ED1FFE741F20000F3
:1008A000C4F2020000688001002804D4FFE70120A0
:1008B0008DF80F009FE00DE041F20000C4F202004D
:1008C00000688007002804D4FFE701208DF80F009E
:1008D00091E0FFE7FFE741F20401C4F2020108687A
:1008E00020F00300029A526810430860FFF7A8FE48
:1008F0000090FFE741F20400C4F20200006800F03B
:100900000C0002994968B0EB810F0ED0FFE7FFF7AA
:1009100097FE0099401A41F28931884204D3FFE7DB
:1009200003208DF80F0066E0E4E7FFE7019842F24C
:100930000001C4F20201096801F00701884216D2E1
:10094000FFE742F20000C4F20200016821F0070153
:10095000019A11430160006800F007000199884284
:1009600004D0FFE701208DF80F0044E0FFE7029874
:100970000078400700280CD5FFE741F20401C4F2DB
:100980000201086820F4E060029AD268104308600F
:10099000FFE702980078000700280DD5FFE741F235
:1009A0000401C4F20201086820F46050029A12693E
:1009B00040EAC2000860FFE700F04CF841F2040191
:1009C000C4F202010968C9B20A0942F29A71C0F67A
:1009D0000001895CC84040F20001C2F200010860D9
:1009E00040F20800C2F200000068FFF751FE00204C
:1009F0008DF80F00FFE79DF80F0004B080BD0000E8
:100A000040F20000C2F200000068704780B5FFF7B6
:100A1000F7FF41F20401C4F202010968C1F30222A6
:100A200042F2AA71C0F60001895CC84080BD000096
:100A300080B5FFF7E5FF41F20401C4F20201096845
:100A4000C1F3C22242F2AA71C0F60001895CC8401B
:100A500080BD000086B000200590049003900290B5
:100A6000019041F20400C4F202000068059005986C
:100A700000F00C000146009100283FD0FFE70098ED
:100A8000042804D0FFE70098082806D037E041F298
:100A90000020C0F27A00019037E00598C0F383414E
:100AA00042F2B270C0F60000405C02909DF8160061
:100AB000C007C0B1FFE741F20400C4F202000068C1
:100AC000C0F3404142F2C270C0F60000405C0490A6
:100AD000029841F20021C0F27A0148430499B0FB28
:100AE000F1F0039007E0029840F60011C0F23D01DA
:100AF00048430390FFE70398019006E0FFE741F2C7
:100B00000020C0F27A000190FFE7019806B070471C
:100B100080B586B00490049820B9FFE701208DF8D5
:100B200017002EE304980078C007002800F0AE807C
:100B3000FFE741F20400C4F20200006800F00C007C
:100B4000042813D0FFE741F20400C4F20200006859
:100B500000F00C0008281BD1FFE741F20400C4F2AA
:100B600002000068C003002812D5FFE741F2000030
:100B7000C4F2020000688003002808D5FFE704984B
:100B8000406820B9FFE701208DF81700F9E27CE00A
:100B9000FFE704984068B0F5803F09D1FFE741F2D4
:100BA0000001C4F20201086840F48030086032E0BD
:100BB0000498406868B9FFE741F20001C4F20201FD
:100BC000086820F480300860086820F480200860FD
:100BD00020E004984068B0F5A02F0DD1FFE741F266
:100BE0000001C4F20201086840F48020086008682F
:100BF00040F4803008600CE041F20001C4F20201D0
:100C0000086820F480300860086820F480200860BC
:100C1000FFE7FFE7FFE7FFE704984068D0B1FFE791
:100C2000FFF70EFD0390FFE741F20000C4F202005F
:100C30000068800300280CD4FFE7FFF701FD03994B
:100C4000401A652804D3FFE703208DF8170098E2C7
:100C5000EAE719E0FFF7F4FC0390FFE741F2000038
:100C6000C4F202000068800300280CD5FFE7FFF7FC
:100C7000E7FC0399401A652804D3FFE703208DF8A9
:100C800017007EE2EAE7FFE7FFE7FFE70498007856
:100C90008007002840F18D80FFE741F20400C4F294
:100CA0000200006810F00C0F13D0FFE741F20400BF
:100CB000C4F20200006800F00C00082829D1FFE708
:100CC00041F20400C4F202000068C003002820D4EE
:100CD000FFE741F20000C4F202000068800700282C
:100CE00009D5FFE704980069012804D0FFE7012037
:100CF0008DF8170045E241F20001C4F202010868D4
:100D000020F0F800049A526940EAC2000860FFE748
:100D10004EE00498006958B3FFE70021C4F2422175
:100D200001200860FFF78CFC0390FFE741F2000010
:100D3000C4F202000068800700280CD4FFE7FFF728
:100D40007FFC0399401A032804D3FFE703208DF8A2
:100D5000170016E2EAE741F20001C4F20201086856
:100D600020F0F800049A526940EAC20008601EE0D0
:100D70000021C4F2422100200860FFF761FC0390CB
:100D8000FFE741F20000C4F202000068800700287B
:100D90000CD5FFE7FFF754FC0399401A032804D34E
:100DA000FFE703208DF81700EBE1EAE7FFE7FFE735
:100DB000FFE7049800780007002848D5FFE704986B
:100DC000806918B3FFE740F28041C4F2422101205C
:100DD0000860FFF735FC0390FFE741F22400C4F2FE
:100DE00002000068800700280CD4FFE7FFF728FC0A
:100DF0000399401A032804D3FFE703208DF8170056
:100E0000BFE1EAE7012001F043F81FE040F2804132
:100E1000C4F2422100200860FFF712FC0390FFE7B4
:100E200041F22400C4F202000068800700280CD5BB
:100E3000FFE7FFF705FC0399401A032804D3FFE7F7
:100E400003208DF817009CE1EAE7FFE7FFE704982D
:100E500000784007002840F1D880FFE700208DF897
:100E6000070041F21C00C4F202000068C000002824
:100E700013D4FFE7FFE741F21C00C4F2020001684F
:100E800041F080510160006800F0805000900098AF
:100E9000FFE701208DF80700FFE747F20000C4F2EA
:100EA00000000068C005002822D4FFE747F20001D7
:100EB000C4F20001086840F480700860FFF7C0FBCE
:100EC0000390FFE747F20000C4F200000068C0058D
:100ED00000280CD4FFE7FFF7B3FB0399401A6528FD
:100EE00004D3FFE703208DF817004AE1EAE7FFE7A4
:100EF000FFE70498C068012809D1FFE741F220010B
:100F0000C4F20201086840F00100086031E0049872
:100F1000C06868B9FFE741F22001C4F20201086825
:100F200020F001000860086820F0040008601FE05D
:100F30000498C06805280DD1FFE741F22001C4F2F2
:100F40000201086840F004000860086840F00100F1
:100F500008600CE041F22001C4F20201086820F0B0
:100F600001000860086820F004000860FFE7FFE760
:100F7000FFE7FFE70498C068E0B1FFE7FFF760FB19
:100F80000390FFE741F22000C4F2020000688007EE
:100F900000280ED4FFE7FFF753FB0399401A41F2F4
:100FA0008931884204D3FFE703208DF81700E8E079
:100FB000E8E71BE0FFF744FB0390FFE741F2200066
:100FC000C4F202000068800700280ED5FFE7FFF793
:100FD00037FB0399401A41F28931884204D3FFE775
:100FE00003208DF81700CCE0E8E7FFE79DF8070045
:100FF000012809D1FFE741F21C01C4F2020108688F
:1010000020F080500860FFE7FFE70498C0690028DF
:1010100000F0B380FFE741F20400C4F20200006870
:1010200000F00C00082800F08280FFE70498C069F7
:1010300002285CD1FFE76021C4F242210020086051
:10104000FFF7FEFA0390FFE741F20000C4F202004E
:101050000068800100280CD5FFE7FFF7F1FA03993B
:10106000401A032804D3FFE703208DF8170088E017
:10107000EAE70498006AB0F5803F0CD1FFE741F23F
:101080000401C4F20201086820F40030049A926856
:1010900010430860FFE741F20401C4F2020108684E
:1010A00020F47410049B1A6A5B6A1A4310430860A8
:1010B0006021C4F2422101200860FFF7C1FA0390C9
:1010C000FFE741F20000C4F202000068800100283E
:1010D0000CD4FFE7FFF7B4FA0399401A032804D3AE
:1010E000FFE703208DF817004BE0EAE71EE06021E0
:1010F000C4F2422100200860FFF7A2FA0390FFE744
:1011000041F20000C4F202000068800100280CD502
:10111000FFE7FFF795FA0399401A032804D3FFE786
:1011200003208DF817002CE0EAE7FFE724E004989D
:10113000C069012804D1FFE701208DF8170020E0E5
:1011400041F20400C4F2020000680290029800F428
:1011500080300499096A884208D1FFE7029800F4B8
:1011600070100499496A884204D0FFE701208DF885
:10117000170006E0FFE7FFE7FFE700208DF8170004
:10118000FFE79DF8170006B080BD000080B584B071
:101190000290029820B9FFE701208DF80F006DE062
:1011A0000298406A60B9FFE702984068B0F5827F14
:1011B00001D1FFE703E002990020C861FFE705E0E5
:1011C00002990020086102994861FFE70299002016
:1011D0008862029890F8510040B9FFE70299002018
:1011E00081F85000029800F04DF8FFE702990220C4
:1011F00081F8510002980168086820F040000860FA
:10120000029A019211685068D2F808C0D36800F4BD
:1012100082700CF4044C604403F4006318441369B6
:1012200003F002031844536903F00103184493695F
:1012300003F400731844D36903F038031844136AA5
:1012400003F080031843926A02F4005210430860CE
:101250000299488B00F00400096848600298016810
:10126000C86920F40060C861029900204865029AAC
:10127000012182F851108DF80F00FFE79DF80F0053
:1012800004B080BD80B58AB0099000200890079016
:10129000069005900998006843F20001C4F201012C
:1012A000884237D1FFE7FFE741F21800C4F202009D
:1012B000016841F480510160006800F4805004909E
:1012C0000498FFE7FFE741F21800C4F2020001684A
:1012D00041F004010160006800F0040003900398ED
:1012E000FFE7A0200590022006900320089040F61A
:1012F0000000C4F20100019005A90291FEF7F8FF79
:101300000198029940220592002206920792FEF768
:10131000EFFFFFE70AB080BD80B588B00690059169
:10132000ADF81220039300208DF80700069890F87E
:101330005100012804D0FFE702208DF80700FDE0EE
:1013400006984068B0F5827F16D1FFE7069880685E
:1013500090B9FFE70699042081F851000698059A94
:10136000BDF812300399EC46CCF80010114600F09D
:1013700041FA8DF81F00ECE0FFE7069890F8500066
:10138000012804D1FFE702208DF81F00E1E0069953
:10139000012081F85000FFE7FFE7FFF751F90290C5
:1013A000059820B1FFE7BDF8120020B9FFE7012042
:1013B0008DF80700C2E00699042081F851000699D3
:1013C000002048650599069A9163BDF81210069AA7
:1013D0009187BDF81210069AD1870699086306997D
:1013E00088860699C886069908640699486406980E
:1013F0008068B0F5004F0DD1FFE7069801680868D6
:1014000020F04000086006980168086820F48040D9
:101410000860FFE706980068006800F04000402878
:1014200007D0FFE706980168086840F040000860B0
:10143000FFE70698C068A0BBFFE7FFE70698C08FEC
:1014400070B3FFE7069800688068C00778B1FFE7CF
:1014500006980068007B0699896B08700699886B6E
:10146000013088630699C88F0138C88717E0FFF7F5
:10147000E7F80299401A0399884204D3FFE70398DA
:10148000013018B9FFE7039840B9FFE703208DF852
:1014900007000699012081F851004FE0FFE7CDE7F2
:1014A00033E0FFE70698C08F70B3FFE70698006847
:1014B0008068C00778B1FFE706980068C0680699A1
:1014C000896B08800699886B023088630699C88FFB
:1014D0000138C88717E0FFF7B3F80299401A03995B
:1014E000884204D3FFE70398013018B9FFE7039857
:1014F00040B9FFE703208DF807000699012081F825
:1015000051001BE0FFE7CDE7FFE706980399029A39
:1015100000F0DCFC20B1FFE7069920204865FFE7DA
:101520000698406D20B1FFE701208DF8070004E028
:101530000699012081F85100FFE7FFE7FFE70699D0
:10154000002081F85000FFE79DF807008DF81F008C
:10155000FFE79DF81F0008B080BD000080B588B08F
:1015600006900591ADF81220039300208DF8070036
:10157000FFE7069890F85000012804D1FFE7022009
:101580008DF81F0031E10699012081F85000FFE736
:10159000FFE7FFF755F80290BDF81200ADF8040020
:1015A000069890F85100012804D0FFE702208DF83A
:1015B00007000FE1059820B1FFE7BDF8120020B940
:1015C000FFE701208DF8070004E10699032081F868
:1015D00051000699002048650599069A1163BDF8E7
:1015E0001210069A9186BDF81210069AD1860699B5
:1015F0008863069988870699C8870699486406997A
:10160000086406988068B0F5004F0DD1FFE7069892
:101610000168086820F040000860069801680868C2
:1016200040F480400860FFE706980068006800F01A
:101630004000402807D0FFE706980168086840F09E
:1016400040000860FFE70698C068B0F5006F4BD116
:10165000FFE70698406828B1FFE7BDF804000128BD
:101660000ED1FFE706980168006B0088C8600699F4
:10167000086B023008630699C88E0138C886FFE7F8
:10168000FFE70698C08E70B3FFE706980068806891
:10169000800700280ED5FFE706980168006B0088D8
:1016A000C8600699086B023008630699C88E013835
:1016B000C88617E0FEF7C4FF0299401A03998842D2
:1016C00004D3FFE70398013018B9FFE7039840B946
:1016D000FFE703208DF807000699012081F85100EB
:1016E00078E0FFE7CDE74AE00698406828B1FFE7D9
:1016F000BDF8040001280ED1FFE706980168006BD1
:10170000007808730699086B013008630699C88E43
:101710000138C886FFE7FFE70698C08E70B3FFE781
:10172000069800688068800700280ED5FFE70698B5
:101730000168006B007808730699086B0130086334
:101740000699C88E0138C88617E0FEF779FF02991E
:10175000401A0399884204D3FFE70398013018B96F
:10176000FFE7039840B9FFE703208DF807000699CB
:10177000012081F851002DE0FFE7CDE7FFE7069853
:101780000399029A00F0FEFB20B1FFE706992020A2
:101790004865FFE70698806870B9FFE7FFE700201B
:1017A000009006980068C0680090069800688068FD
:1017B00000900098FFE7FFE70698406D20B1FFE733
:1017C00001208DF8070004E00699012081F85100FE
:1017D000FFE7FFE7FFE70699002081F85000FFE7E9
:1017E0009DF807008DF81F00FFE79DF81F0008B067
:1017F00080BD000080B58EB0DDF840C00C900B912C
:101800000A92ADF826300120059000208DF81300D3
:10181000FFE70C9890F85000012804D1FFE7022060
:101820008DF83700A6E10C99012081F85000FFE700
:10183000FFE7FEF705FF06900C9890F851008DF831
:101840001F000C9840680890BDF82600ADF82400F1
:101850009DF81F00012812D0FFE70898B0F5827F9D
:1018600009D1FFE70C98806828B9FFE79DF81F00B1
:10187000042804D0FFE702208DF813006FE10B98D5
:1018800038B1FFE70A9820B1FFE7BDF8260020B97C
:10189000FFE701208DF8130061E10C9890F85100EA
:1018A000042805D0FFE70C99052081F85100FFE7D7
:1018B0000C99002048650A990C9A9163BDF826108E
:1018C0000C9AD187BDF826100C9A91870B990C9A27
:1018D0001163BDF826100C9AD186BDF826100C9A1B
:1018E00091860C9908640C9948640C98006800680B
:1018F00000F04000402807D0FFE70C980168086816
:1019000040F040000860FFE70C98C068B0F5006F39
:101910007AD1FFE70C98406828B1FFE7BDF82400B2
:1019200001280ED1FFE70C980168006B0088C860A1
:101930000C99086B023008630C99C88E0138C88670
:10194000FFE7FFE70C98C18E0120029039B9FFE74D
:101950000C98C08F002818BF01200290FFE7029862
:10196000C00700284FD0FFE70C9800688068800708
:10197000002818D5FFE70C98C08EA0B1FFE70598A6
:10198000012810D1FFE70C980168006B0088C8603F
:101990000C99086B023008630C99C88E0138C88610
:1019A00000200590FFE70C9800688068C007A8B188
:1019B000FFE70C98C08F88B1FFE70C980068C068FB
:1019C0000C99896B08800C99886B023088630C999C
:1019D000C88F0138C88701200590FFE7FEF730FE69
:1019E0000699401A109988420CD3FFE710980130ED
:1019F00040B1FFE703208DF813000C99012081F816
:101A00005100ACE09EE77CE00C98406828B1FFE70D
:101A1000BDF8240001280ED1FFE70C980168006B87
:101A2000007808730C99086B013008630C99C88E14
:101A30000138C886FFE7FFE70C98C18E01200190AE
:101A400039B9FFE70C98C08F002818BF012001901A
:101A5000FFE70198C007002852D0FFE70C98006804
:101A600080688007002818D5FFE70C98C08EA0B1C9
:101A7000FFE70598012810D1FFE70C980168006B7B
:101A8000007808730C99086B013008630C99C88EB4
:101A90000138C88600200590FFE70C980068806830
:101AA000C007A8B1FFE70C98C08F88B1FFE70C987A
:101AB0000068C0680C99896B08700C99886B0130BC
:101AC00088630C99C88F0138C88701200590FFE70B
:101AD000FEF7B6FD0699401A1099884204D3FFE735
:101AE0001098013018B9FFE7109840B9FFE70320BC
:101AF0008DF813000C99012081F851002FE09BE72D
:101B0000FFE70C981099069A00F03CFA38B1FFE70D
:101B100001208DF813000C99202048651FE00C98D7
:101B2000806870B9FFE7FFE7002003900C98006819
:101B3000C06803900C980068806803900398FFE7E2
:101B4000FFE70C98406D20B1FFE701208DF81300EE
:101B500004E00C99012081F85100FFE7FFE7FFE75F
:101B60000C99002081F85000FFE79DF813008DF8D4
:101B70003700FFE79DF837000EB080BD80B582B01A
:101B80000190019800F0B8FA02B080BD80B582B033
:101B90000090009820B9FFE701208DF8070040E091
:101BA0000098806908B1FFE700E0FFE7009890F82F
:101BB000410040B9FFE70099002081F840000098FB
:101BC00000F034F8FFE70099242081F841000098E4
:101BD0000168C86820F40050C860009800F0EEFA70
:101BE00000980168086920F4904008610098016835
:101BF000486920F02A00486100980168C86840F4EC
:101C00000050C860009900204864009A202182F8A2
:101C10004110009A82F84210009948638DF807003D
:101C2000FFE79DF8070002B080BD000081B0009082
:101C300001B07047FFE7FEE780B592B00020119039
:101C400010900F900E90FFE741F21800C4F20200CE
:101C5000016841F010010160006800F010000D9073
:101C60000D98FFE7FFE741F21800C4F20200016897
:101C700041F020010160006800F020000C900C98F9
:101C8000FFE7FFE741F21800C4F20200016841F0EB
:101C900004010160006800F004000B900B98FFE75E
:101CA000FFE741F21800C4F20200016841F00801A8
:101CB0000160006800F008000A900A98FFE741F20E
:101CC0000000C4F2010002904FF400510191002283
:101CD0000692FEF79DFC069A40F60040C4F2010011
:101CE000049001210391FEF793FC019B0298039A53
:101CF00006990E930F9210910221059111910EA950
:101D00000991FEF7F5FADDF80CC00498059A069BD8
:101D10000999CDF838C0CDF83CC010931192FEF768
:101D2000E7FA059A069809994FF400730E930F92FB
:101D3000109003200790119040F60000C4F20100BB
:101D40000890FEF7D5FA069B079A089809994FF470
:101D5000806CCDF838C00F9310931192FEF7C8FA3B
:101D600012B080BD80B582B040F27C00C2F20000AB
:101D7000019043F20001C4F2010101604FF482714D
:101D8000416000218160C160022202610122426142
:101D90004FF4007282611822C26101624162816265
:101DA0000A21C162FFF7F2F918B1FFE7FEF798FACE
:101DB000FFE702B080BD000080B582B0FFE741F2CE
:101DC0001800C4F20200016841F48041016000681B
:101DD00000F4804001900198FFE740F2D400C2F285
:101DE0000000009043F60001C4F2010101604FF4CD
:101DF000E131416000218160C16001610C224261DA
:101E00008161C161FFF7C2FE18B1FFE7FEF768FA12
:101E1000FFE702B080BD0000FFE7FEE7FFE7FEE757
:101E200088B0079006910592079800F0070004908B
:101E30000498C0F10700052803D3FFE704200190B0
:101E400004E00498C0F107000190FFE701980390B7
:101E500004980430062803D8FFE70020009003E030
:101E6000049803380090FFE70098029006980399C1
:101E7000012202FA01F101390840029B98400599BC
:101E80009A40013A1140084308B07047704700007B
:101E900082B00190019840F20001C2F2000109688D
:101EA000C90844F6D352C1F26202A1FB022189099A
:101EB00048430090FFE700BFFFE70098411E0091F4
:101EC0000028F8D1FFE702B07047000080B586B067
:101ED00004900391029204984068B0F5827F13D178
:101EE000FFE704988068B0F5004F06D0FFE704983C
:101EF0008068B0F5806F07D1FFE704980168086833
:101F000020F040000860FFE704984068B0F5827F49
:101F10001BD1FFE704988068B0F5806F15D1FFE70B
:101F20000498039B02996A4611600121002200F087
:101F30004BF848B1FFE70499486D40F02000486530
:101F400003208DF8170019E014E00498039B029910
:101F50006A4611608021002200F036F848B1FFE7A0
:101F60000499486D40F02000486503208DF8170063
:101F700004E0FFE700208DF81700FFE79DF8170049
:101F800006B080BD80B586B004900391029204989B
:101F9000039B02996A4611608021002200F014F828
:101FA00048B1FFE70499486D40F0200048650320E0
:101FB0008DF8170003E000208DF81700FFE79DF86B
:101FC000170006B080BD000080B58AB0DDF830C0D3
:101FD000089007918DF81B20059305980190FEF756
:101FE0002FFB024601980C99891A08440390FEF7CA
:101FF00027FB0290039840F20001C2F20001096839
:10200000C1F3CB3148430490FFE70898006880682B
:1020100007990840401AB0FA80F040099DF81B105B
:1020200088425ED0FFE705980130002858D0FFE7CE
:10203000FEF706FB0299401A0399884204D2FFE793
:102040000398002842D1FFE708980168486820F00B
:10205000E000486008984068B0F5827F13D1FFE740
:1020600008988068B0F5004F06D0FFE708988068B0
:10207000B0F5806F07D1FFE708980168086820F085
:1020800040000860FFE70898806AB0F5005F0FD154
:10209000FFE7FFE708980168086820F4005008602F
:1020A00008980168086840F400500860FFE7FFE7FF
:1020B0000899012081F85100FFE70899002081F874
:1020C0005000FFE703208DF827000EE0049818B9B0
:1020D000FFE700200390FFE7049801380490FFE732
:1020E00093E700208DF82700FFE79DF827000AB04E
:1020F00080BD00007047000080B582B0009000985D
:102100000138B0F1807F03D3FFE70120019019E08F
:10211000009801384EF21401CEF2000108604FF031
:10212000FF300F2100F0B2F84EF21801CEF200019C
:10213000002008604EF21002CEF20002072111606A
:102140000190FFE7019802B080BD000080B5FEF766
:102150007DFA80BD80B590B006A800902821FEF7DA
:1021600049F8009800210591049103910291019191
:10217000012306934FF48032079208910A930223B9
:102180000D930E920F91FEF7C3FC18B1FFE7FEF717
:10219000A7F8FFE70F200190022002900021039191
:1021A0000491059101A8FEF7FFFA18B1FFE7FEF7C9
:1021B00097F8FFE710B080BD7047000080B584B08D
:1021C000039003980068006920F44050039A116856
:1021D000D26810430861039988680A694969104305
:1021E0000843029003980068C06841F20C6188437C
:1021F0000299084303990968C86003980068406918
:1022000020F44070039A1168926910434861039862
:10221000006843F60001C4F20101884204D1FFE7DF
:10222000FEF706FC019003E0FEF7F0FB0190FFE7EC
:10223000019819214843039A116852689200B0FB33
:10224000F2FC48F21F52C5F2EB12ACFB023043091C
:10225000642003FB10CC322000EB0C10A0FB020228
:10226000F02000EA521000EB0310C2F343121044B6
:10227000886004B080BD0000FFE7FEE74EF60C501A
:10228000CEF200000068C0F30220704782B08DF8E3
:10229000070000919DF9070000280AD4FFE7009885
:1022A00000019DF907104EF20042CEF20002885460
:1022B0000BE0009800019DF8071001F00F014EF6A9
:1022C0001452CEF200028854FFE702B070470000BB
:1022D00083B00290029800F0070000904EF60C5177
:1022E000CEF200010868019001984FF6FF021040FD
:1022F00001900198009A40EA02200022C0F2FA52AE
:10230000104301900198086003B0704780B584B015
:10231000362000F047F8ADF80E00372000F042F804
:10232000ADF80C00BDF80C10BDF80E0040EA01201D
:10233000ADF80A00BDF90A0000F015F947F2DE1207
:10234000C8F68A624FF2E423C3F66F7300F022F9F5
:1023500000F0D8F80190019804B080BD80B584B039
:102360000390039840F27801C2F20001086040F245
:102370007401C2F200010020019008703120012197
:1023800000F066F83820802100F062F801992D20D5
:10239000029000F05DF80298082100F059F804B0AE
:1023A00080BD000080B586B08DF817009DF817003D
:1023B00040F080008DF8170005208DF8130041F2E1
:1023C0000000C4F201004FF4005101220292FEF716
:1023D0001FF9029940F60040C4F201000390002268
:1023E000FEF716F9029A40F27800C2F2000001905E
:1023F00000689DF813300DF11701FFF7AFF80146A3
:1024000001988DF8161000689DF8133005A9062272
:10241000FEF782FF029A014603988DF815101146C7
:10242000FEF7F6F89DF8150070B9FFE79DF8160065
:1024300050B9FFE741F20000C4F201004FF400512F
:102440000022FEF7E5F8FFE79DF8140006B080BD16
:1024500080B584B08DF80F008DF80E1005208DF832
:102460000A009DF80F008DF80B009DF80E008DF806
:102470000C0040F60040C4F20100019001210091DF
:102480000022FEF7C5F840F27800C2F200000068B2
:102490009DF80A300DF10B010222FFF75FF8009A58
:1024A000014601988DF80D101146FEF7B1F804B001
:1024B00080BD000080B582B000200190FEF7D4F806
:1024C000FFF748FEFFF7B8FBFFF74CFCFFF774FC83
:1024D00040F27C00C2F20000FFF740FFFFE741F24C
:1024E0000000C4F201004FF400510122FEF790F801
:1024F000FFF70CFF40F27001C2F200010860FDF727
:10250000DFFEECE721F0004201F00043A2F160524F
:10251000B2F5801F28BFD2F17F6C0BD95FEA001C97
:1025200043EAC20242EB507018BF704728BF20F048
:1025300001007047B2F5801FBCBF184670474FEAD4
:10254000410C1CF5001F02D2084600F021B970B5FD
:1025500000F0CAF800000089FFF7F6BF4FF0004016
:10256000A0F58000704710F0004248BF4042B0FA2A
:1025700080F310FA03F10AD0C3F11D0303F5806361
:1025800002EB03524FEA415002EBD12170474FF06A
:102590000000704770B5DFF848C11CEA111E1EBF6D
:1025A0001CEA13159EEA0C0F95EA0C0F00F06F80E1
:1025B00081EA03044EEAD47EAE4421EA4C1123EAB8
:1025C0004C1341F4801143F48013AEF17F7EA1FBE4
:1025D000024CA0FB0365361955EB0C05A1FB034C1F
:1025E0004CF10003A0FB021C16EB0C06654153F1F5
:1025F0000003094218BF46F0010613F4007F0BD117
:102600004FEA03314FEA053041EA155140EA1650CE
:1026100034036FF003020AE04FEAC3214FEAC520FA
:1026200041EA555140EA5650F4026FF0020202EBC3
:102630002E4201EB025585EACE710AD05FEA440CC6
:1026400018BF24F0004450F1000041F1000120EADD
:10265000D47040F2FE7C624500D270BDA84214BF27
:102660004FF080444FF04044002E08BF0024BEF1DC
:10267000806FA8BFA1F1C041BDE8704080F28280A8
:1026800001F1C04101F000414FF0000070470CEA39
:1026900013159EEA0C0F18BF95EA0C0F06D081EABD
:1026A000030E4FF000000EF0004170BD00F01CF86A
:1026B0008900013E00F007B800F009B84FEA430C6A
:1026C0005FEA5C5C08D081EA030100F05BB84FEA86
:1026D000410C5FEA5C5CF6D102494FF000007047A4
:1026E0000000FF070000F87F0EF1020E2EF0030E2F
:1026F0005EF8046B364205D4012A43EB030515F559
:10270000001F12D8012841EB010C1CF5001F0CD84A
:102710000ED14FEAD17C0CEB4C0C0CF1020C15F5F0
:10272000001F08BF4CEBD37C04E04FF0080C01E025
:102730004FEAD37C0CEB4C0526FA05F606F00706AB
:10274000B6F1040C06D20EEB860CBDE870404CF0DE
:10275000010C6047DFE80CF0090B02024FF000416A
:10276000A1F500214FF0000070BD19461046012868
:1027700051EB010418BFD4F5001484BF002001F010
:10278000004170BD0808A0F500114FEA3101704703
:10279000FF2141EAD050C005704700000000000052
:1027A00000000102030406070809000000000102FE
:1027B000030402030405060708090A0B0C0D0E0F9B
:1027C00010100102E827000800000020100000009F
:1027D00050010008F8270008100000201007000032
:1027E00070010008000000000024F4000100000057
:0827F0001000000000000000D1
:04000005080000ED02
:00000001FF
